:020000040800F2
:100000000030002019170008ED030008EF03000876
:10001000F1030008F3030008F503000800000000E6
:10002000000000000000000000000000F7030008CE
:10003000F903000800000000FB030008FD030008AE
:100040006917000869170008691700086917000890
:10005000691700086917000869170008C504000837
:100060006917000869170008691700086917000870
:100070006917000869170008691700086917000860
:100080006917000869170008691700086917000850
:100090006917000869170008691700086917000840
:1000A0006917000869170008691700086917000830
:1000B00069170008691700080000000069170008A8
:1000C0006917000800000000000000006917000820
:1000D0000000000069170008691700086917000888
:1000E0006917000869170008000000000000000000
:1000F0000000000000000000000000000000000000
:1001000000000000000000000000000000000000EF
:1001100000000000000000006917000869170008CF
:1001200000000000000000000000000000000000CF
:1001300000000000000000000000000000000000BF
:100140006917000869170008000000006917000817
:10015000691700086917000869170008691700087F
:10016000691700086917000800000000000000007F
:10017000000000000000000000000000000000007F
:080180000000000069170008EF
:1001880010B5054C237833B9044B13B10448AFF3C9
:1001980000800123237010BD0C0000200000000027
:1001A800C417000808B5034B1BB103490348AFF354
:1001B800008008BD0000000010000020C4170008DF
:1001C80008B500220121072001F018FA072001F0E4
:1001D80049FA054B1A6842F002021A609A6842F01E
:1001E80002029A6008BD00BF0004014070B588B0E3
:1001F800002403940494059406940794174B5A69B1
:1002080042F400325A615A6902F400320192019AAA
:100218005A6942F480225A615B6903F4802302938D
:10022800029B0F4D22464FF47071284601F0CAF91F
:10023800012603960B4B0493059403A94FF09040B5
:1002480001F0FCF84FF47073039304960594069438
:1002580003A9284601F0F2F808B070BD001002406A
:10026800000400480000121070B5A2B000241E94CB
:100278001F94209421945422214609A801F096FA4B
:100288002022214601A801F091FA2B4D2B4B2B601F
:100298006C60AC60284600F0BDFA4FF6FD731E9303
:1002A8001F9405232093082321931EAA0221284680
:1002B80000F018FB09940A940B940C9401260D96EF
:1002C8000E940F94109411941294139414941594FA
:1002D80016941794189419941A941B941C941D94AA
:1002E80009AA0221284600F016FB0B940C940D96DF
:1002F8001A9409AA0321284600F00DFB01940294E0
:1003080003940494059406940794089401AB10226E
:100318000221284600F037FB01AB40220321284682
:1003280000F031FB1EAA0321284600F0DBFA28461C
:1003380000F098F822B070BD280000200074014039
:1003480070B596B0202200210DA801F02FFA0024E4
:100358000794089409940A940B94009401940294C5
:10036800039404940594069402250C95012610968E
:100378001023119313954FF4E01315930CA800F074
:100388007FFB0F230793089509944FF480630A9322
:100398000B94314607A800F0AFFE4FF4804300935A
:1003A8000694684600F078FF16B070BD08B500F0F6
:1003B8002FFBFFF705FFFFF7C3FFFFF717FFFFF757
:1003C80053FF064B0722C3F8002E8021044801F092
:1003D800FEF84FF4FA7000F03FFBF2E700E100E0AE
:1003E800000400487047FEE7FEE7FEE7FEE77047B7
:1003F8007047704708B500F01DFB08BD00B583B015
:100408000C4B9A6942F001029A619A6902F0010262
:100418000092009ADA6942F08052DA61DB6903F0EF
:1004280080530193019B072001F0D6F803B05DF8D3
:1004380004FB00BF001002400268094B9A4200D03A
:10044800704782B003F51C439A6942F000529A61E2
:100458009B6903F000530193019B02B0704700BFF2
:100468000074014000B587B0002301930293039301
:100478000493059302680F4B9A4202D007B05DF8C7
:1004880004FB03F51C435A6942F480225A615B69F4
:1004980003F480230093009B4FF4A04301930223AD
:1004A8000293032304930D23059301A9024800F046
:1004B800C5FFE3E7007401400004004808B54FF4A5
:1004C8000071024801F083F808BD00BF000400482D
:1004D80010B40468226822F007028B68134323F0E3
:1004E8001803CA681343236003680A685A610368DB
:1004F8004A689A615DF8044B704770B406684C1CF2
:10050800E401355925F0070593682B4323F01803B8
:10051800D5682B43335103681468C9010B44C3F8E9
:100528009440036852681944C1F8982070BC704719
:1005380030B404682268D4F8A05322F020024B6932
:10054800134323F400628B69134323F48062CB695D
:10055800134323F0C0620B6A134323F000624B6A13
:10056800134323F040438A6A43EA820323F000538B
:100578000A6B134325F48035CA6A15432360036860
:10058800C3F8A05330BC70472DE9F04105684B1CF7
:10059800DB01EC5824F07044EC500768FB5807EB7B
:1005A800C114D4F8E8C0D4F8E450D4F8D440D7F84B
:1005B800A06323F020045369234323F40064936960
:1005C800234323F48064D369234323F0C064136A6C
:1005D800234323F00064536A234323F07044936A4F
:1005E800234323F40033146BB4F1005F35D023F0B8
:1005F8004003D2F834E04EEA030323F48023146D59
:10060800234323F0FC73946C43EA04082CF01F0C7A
:10061800946B04F01F0444EA0C0424F00044D36BE8
:100628001C43BEF1000F03D125F48075136C1D43E4
:10063800D2F844C0BCF5606F12D0BCF5F05F0FD0A3
:1006480025F4F0554CEA0505D2F84CC0042910D819
:10065800DFE801F00A252B31370043F40033C6E701
:10066800BEF1400FF0D1EBE726F40036D26A46EA35
:1006780042064A1CD20147F802800368C9010B44AC
:10068800C3F8E84003680B44C3F8E450036819440E
:10069800C1F8D4C00368C3F8A063BDE8F08126F4AC
:1006A8008026D26A46EA8206E3E726F40026D26A62
:1006B80046EAC206DDE726F48016D26A46EA021642
:1006C800D7E726F40016D26A46EA4216D1E7F0B414
:1006D800076807EBC114D4F8E450D4F8B860102ABE
:1006E8003ED009D9802A48D031D8202A45D0402A7E
:1006F80036D04FF0FF320DE0022A3ED006D9042A48
:100708002ED0082A39D04FF0FF3203E0012A27D033
:100718004FF0FF32FE24944025EA04051C689440FB
:100728002543DC6894402C431F6907FA02F52543EA
:100738005C69944025439C6994402C43082F29D038
:10074800036803EBC111C1F8E440F0BC7047B2F58F
:10075800807F05D0B2F5007F0FD04FF0FF32D9E788
:100768005C684FEAC11C6744C7F8BC4002689C68D3
:100778006244C2F8C0400022CCE75C684FEAC11C62
:100788006744C7F8C44002689C686244C2F8C8401D
:100798001022BFE716F0022FD2D1DB6903FA02F26A
:1007A8001443CDE7052933D8DFE801F00B131B23E9
:1007B8002B030268D2F8843343F00103C2F8843370
:1007C80070470268D2F8843343F00203C2F88433D6
:1007D80070470268D2F8843343F00403C2F88433C4
:1007E80070470268D2F8843343F00803C2F88433B0
:1007F80070470268D2F8843343F01003C2F8843398
:1008080070470268D2F8843343F02003C2F8843377
:1008180070470000002861D010B582B0044602235A
:1008280080F8C1300023C0F8C430C0F8C830C0F820
:10083800CC30C0F8D030C0F8D430C0F8D830836895
:1008480013F0010F12D00268254B9A4237D0216865
:100858000A6822F44042236903F44043134323F413
:100868004053626902F4405213430B602046FFF77D
:10087800E3FDA36813F0020F08D021680A6822F488
:100888004072E36803F4407313430B60012384F858
:10089800C130002284F8C020052A1CD8D000811A53
:1008A8008B00234400219961D961196259629962C8
:1008B800831A9800204401630132D2B2ECE703F5B1
:1008C8001C439A6942F000529A619B6903F00053F5
:1008D8000193019BBBE7002002B010BD01207047C7
:1008E8000074014090F8C130DBB2022B11D010B572
:1008F8000446022380F8C130052906D0FFF7FDFD24
:10090800012384F8C130002010BD1146FFF7E0FD37
:10091800F6E70220704790F8C130DBB2022B2ED0E8
:1009280090F8C030012B2CD070B516460D46044601
:10093800012380F8C030022380F8C13005291AD07D
:10094800FFF722FE3268E900491B8B0023441A6234
:1009580072685A62B2689A62F268DA6232691A6335
:1009680029462046FFF71EFF012384F8C1300020E6
:1009780084F8C00070BD1146FFF7DAFDE2E70220F7
:1009880070470220704738B590F8C140E4B2022C95
:1009980013D090F8C040012C11D00446012580F8EE
:1009A800C050022084F8C1002046FFF790FE84F86A
:1009B800C150002084F8C00038BD0220FCE70220A6
:1009C800FAE7000010B504460E4B18784FF47A7316
:1009D800B3FBF0F30C4A1068B0FBF3F000F04EFEE6
:1009E80068B90F2C01D901200AE0002221464FF0F6
:1009F800FF3000F003FE054B1C60002000E00120E2
:100A080010BD00BF000000200800002004000020E6
:100A180008B5074A136843F010031360032000F079
:100A2800DBFD0020FFF7CEFFFFF7E8FC002008BD44
:100A380000200240034A1168034B1B780B441360E3
:100A4800704700BF0401002000000020014B186817
:100A5800704700BF0401002038B50446FFF7F6FFD1
:100A68000546B4F1FF3F02D0044B1B781C44FFF746
:100A7800EDFF401BA042FAD338BD00BF00000020A4
:100A8800002800F0EB8270B582B00446036813F0CA
:100A9800010F3BD0B54B5B6803F00C03042B1ED051
:100AA800B24B5B6803F00C03082B13D06368B3F5F3
:100AB800803F68D0002B40F0928003F1804303F51B
:100AC80004331A6822F480321A601A6822F48022E9
:100AD8001A605DE0A54B5B6813F4803FE6D04FF4E5
:100AE800003393FAA3F3A14B19684FF4003393FA38
:100AF800A3F3B3FA83F303F01F03012202FA03F30B
:100B08000B4203D06368002B00F0AA82236813F01D
:100B1800020F00F0C580954B5B6813F00C0F00F0D6
:100B28009C80924B5B6803F00C03082B00F08F80CD
:100B38002369002B00F0F280012292FAA2F3B3FAA3
:100B480083F303F1845303F584139B001A60FFF7C2
:100B58007DFF0546022393FAA3F3844B1968022309
:100B680093FAA3F3B3FA83F303F01F03012202FA03
:100B780003F30B4240F0C380FFF768FF401B0228D5
:100B8800E8D9032075E2794A136843F48033136087
:100B9800764AD36A23F00F03A1680B43D3626368D4
:100BA800002B36D0FFF752FF05464FF4003393FA77
:100BB800A3F36E4B19684FF4003393FAA3F3B3FA17
:100BC80083F303F01F03012202FA03F319429DD1B4
:100BD800FFF73CFF401B6428E7D9032049E2B3F53F
:100BE800A02F09D0614B1A6822F480321A601A6863
:100BF80022F480221A60CBE703F18043A3F53C334B
:100C08001A6842F480221A601A6842F480321A6024
:100C1800BEE7FFF71BFF05464FF4003393FAA3F333
:100C2800524B19684FF4003393FAA3F3B3FA83F3E2
:100C380003F01F03012202FA03F319423FF466AFDF
:100C4800FFF704FF401B6428E6D9032011E2474B55
:100C58005B6813F4803F7FF46BAF022393FAA3F32E
:100C6800424B1968022393FAA3F3B3FA83F303F010
:100C78001F03012202FA03F3194203D023699342A6
:100C880040F0F0813948036823F0F8036169F822DD
:100C980092FAA2F2B2FA82F201FA02F21343036064
:100CA800236813F0080F00F08D80A369002B61D032
:100CB800012191FAA1F2B2FA82F22D4B13449B0062
:100CC8001960FFF7C3FE0546022393FAA3F293FACD
:100CD800A3F293FAA3F2254A516A93FAA3F3B3FA5B
:100CE80083F303F01F03012202FA03F30B4269D1D5
:100CF800FFF7ACFE401B0228E6D90320B9E11B48E8
:100D0800036823F0F8036169F82292FAA2F2B2FAB2
:100D180082F201FA02F213430360C1E7012393FA56
:100D2800A3F3B3FA83F303F1845303F584139B000D
:100D380000221A60FFF78AFE0546022393FAA3F3FE
:100D48000A4B1968022393FAA3F3B3FA83F303F067
:100D58001F03012202FA03F31942A1D0FFF776FE1E
:100D6800401B0228E9D9032083E100BF001002409C
:100D780020819010012292FAA2F2B2FA82F2BF4BBD
:100D880013449B0000221A60FFF760FE0546022309
:100D980093FAA3F293FAA3F293FAA3F2B84A516A28
:100DA80093FAA3F3B3FA83F303F01F03012202FAC1
:100DB80003F30B4206D0FFF749FE401B0228E6D991
:100DC800032056E1236813F0040F00F0A980AC4B10
:100DD800DB6913F0805F20D1A94BDA6942F08052B9
:100DE800DA61DB6903F080530193019B0125A54B70
:100DF8001B6813F4807F12D0E368012B23D073BBE8
:100E080003F1804303F504331A6A22F001021A62DF
:100E18001A6A22F004021A621AE00025E7E7994AE2
:100E2800136843F480731360FFF710FE0646954B72
:100E38001B6813F4807FDFD1FFF708FE801B64284E
:100E4800F5D9032015E18E4A136A43F001031362B2
:100E5800E368002B3CD0FFF7F9FD06462EE0052B92
:100E680009D0874B1A6A22F001021A621A6A22F024
:100E780004021A62ECE7824B1A6A42F004021A6210
:100E88001A6A42F001021A62E2E7022393FAA3F314
:100E98007B4B596A022393FAA3F3B3FA83F303F063
:100EA8001F03012202FA03F3194238D1FFF7CEFDDE
:100EB800801B41F28833984200F2D680022393FACD
:100EC800A3F293FAA3F3002BDFD06D4B196AE1E785
:100ED800FFF7BCFD064618E0022393FAA3F3684B1C
:100EE800596A022393FAA3F3B3FA83F303F01F03B7
:100EF800012202FA03F3194211D0FFF7A7FD801B64
:100F080041F28833984200F2B180022393FAA3F2A7
:100F180093FAA3F3002BDFD0594B196AE1E7B5BB6D
:100F2800E369002B00F0A480554A526802F00C02D5
:100F3800082A00F0A080022B2FD04FF0807393FA7C
:100F4800A3F3B3FA83F303F1845303F584139B00EB
:100F580000221A60FFF77AFD04464FF0007393FAF7
:100F6800A3F3474B19684FF0007393FAA3F3B3FA4E
:100F780083F303F01F03012202FA03F319426BD033
:100F8800FFF764FD001B0228E7D9032071E03C4A03
:100F9800D36923F08053D361C2E74FF0807393FA8B
:100FA800A3F3B3FA83F303F1845303F584139B008B
:100FB80000221A60FFF74AFD05464FF0007393FAC6
:100FC800A3F32F4B19684FF0007393FAA3F3B3FA06
:100FD80083F303F01F03012202FA03F3194206D038
:100FE800FFF734FD401B0228E7D9032041E02449DC
:100FF8004B6823F47413626A206A024313434B60FC
:101008004FF0807393FAA3F3B3FA83F303F1845395
:1010180003F584139B0001221A60FFF717FD0446AD
:101028004FF0007393FAA3F3154B19684FF0007350
:1010380093FAA3F3B3FA83F303F01F03012202FA2E
:1010480003F3194206D1FFF701FD001B0228E7D977
:1010580003200EE000200CE000200AE00120704789
:10106800012006E0012004E0032002E0032000E064
:10107800002002B070BD0120FBE700BF2081901066
:101088000010024000700040164B5B6803F00C0231
:10109800082A01D01448704703F470114FF47012F5
:1010A80092FAA2F2B2FA82F221FA02F20F49885CAD
:1010B8000C4AD26A02F00F020F2191FAA1F1B1FA9B
:1010C80081F1CA400A498A5C13F4803F05D0064B77
:1010D800B3FBF2F300FB03F07047064B03FB00F091
:1010E800704700BF0010024000127A00DC170008A9
:1010F800EC17000800093D00002800F0BD8070B51D
:101108000446614B1B6803F007038B420BD25E4A0F
:10111800136823F007030B431360136803F00703F6
:101128008B4240F0AB80236813F0020F06D0574A79
:10113800536823F0F003A068034353600D46236807
:1011480013F0010F5AD06368012B2DD0022B40D029
:10115800022292FAA2F24D4A1068022292FAA2F2F0
:10116800B2FA82F202F01F02012101FA02F21042E1
:1011780000F0868045494A6822F0030213434B6019
:10118800FFF764FC0646414B5B6803F00C0362689A
:10119800B3EB820F32D0FFF759FC801B41F2883342
:1011A8009842F0D9032066E04FF4003292FAA2F296
:1011B800364A10684FF4003292FAA2F2B2FA82F27A
:1011C80002F01F02012101FA02F20242D2D10120EB
:1011D80051E04FF0007292FAA2F22C4A10684FF0D8
:1011E800007292FAA2F2B2FA82F202F01F02012110
:1011F80001FA02F21042BDD101203CE0224B1B68EB
:1012080003F00703AB420AD91F4A136823F0070308
:101218002B431360136803F00703AB4232D12368F2
:1012280013F0040F06D0194A536823F4E063E16809
:101238000B435360236813F0080F07D0134A536811
:1012480023F46053216943EAC1035360FFF71CFF8D
:101258000E4B5B6803F0F003F02292FAA2F2B2FAA6
:1012680082F2D3400A4AD35CD8400A4B1860002067
:10127800FFF7A8FB002070BD012070470120FAE7A6
:101288000120F8E70120F6E70020024000100240A4
:10129800FC17000808000020F0B583B00446036876
:1012A80013F4803F44D0624BDB6913F0805F79D13F
:1012B8005F4BDA6942F08052DA61DB6903F08053F0
:1012C8000193019B01255B4B1B6813F4807F6BD056
:1012D800574B1B6A13F4407321D0626802F44072C2
:1012E8009A421CD05248016A21F440764FF4803368
:1012F80093FAA3F2B2FA82F24F4F3A4492004FF0B7
:10130800010CC2F800C093FAA3F3B3FA83F33B4489
:101318009B0000221A60066211F0010F58D1444A5E
:10132800136A23F4407361680B431362002D75D16F
:10133800236813F0010F06D03D4A136B23F0030313
:10134800A1680B431363236813F0200F06D0384AB3
:10135800136B23F01003E1680B431363236813F046
:10136800800F06D0324AD36A23F4F87321690B43FD
:10137800D362236813F4805F06D02D4A136B23F4DD
:10138800807361690B431363236813F4804F4CD057
:10139800274A136B23F48053A1690B43136300207E
:1013A80003B0F0BD00258EE7224A136843F480732A
:1013B8001360FFF74BFB06461E4B1B6813F4807F38
:1013C80086D1FFF743FB801B6428F5D90320E7E7A4
:1013D800FFF73CFB064614E0154B196A022393FA03
:1013E800A3F3B3FA83F303F01F03012202FA03F312
:1013F8000B4294D1FFF72AFB801B41F288339842B5
:1014080011D8022393FAA3F293FAA3F3002BE3D1A2
:10141800022393FAA3F3064B596ADFE7D36923F053
:101428008053D36184E70320BAE70020B8E700BF00
:10143800001002400070004000819010F0B482B0AB
:10144800002336E0032400E00024B4403C43023586
:10145800584E46F82540584C2568D44304EA0506FA
:101468004F6817F4803F01D042EA0506524D2E60BE
:101478006D6804EA05064F6817F4003F01D042EA98
:1014880005064D4D6E60AD6804EA05064F6817F411
:10149800801F01D042EA0506474DAE60ED682C403A
:1014A8004E6816F4001F01D042EA0504424AD4608F
:1014B80001330A6832FA03F478D001249C402240B0
:1014C800F6D04D68022D01D0122D10D1DE08083655
:1014D80050F826C003F00705AF000F25BD402CEAE1
:1014E800050C0D69BD4045EA0C0540F82650066814
:1014F8005F000325BD40ED4305EA060C4E6806F083
:101508000306BE4046EA0C0606604E6806F1FF3C3C
:10151800BCF1010F03D9112E01D0122E10D186680B
:1015280005EA060CCE68BE4046EA0C0686604668A8
:1015380026EA04044E68C6F300169E402643466019
:10154800C46825408C68BC402C43C4604C6814F0C7
:10155800805FADD0194CA56945F00105A561A46966
:1015680004F001040194019C9D08AE1C114C54F830
:10157800267003F00304A6000F24B44027EA0407EA
:10158800B0F1904F3FF460AF0D4CA0420AD004F583
:101598008064A04208D004F58064A0423FF452AFB2
:1015A800052452E7012450E702244EE702B0F0BCBC
:1015B800704700BF000001400004014000100240D5
:1015C800000400480AB1816170478162704743692D
:1015D8005940416170470000074AD36823F4E0632B
:1015E8001B041B0C000200F4E060184340F0BF60CD
:1015F80040F40030D060704700ED00E030B4174B85
:10160800DB68C3F30223C3F10704042C28BF0424B6
:101618001D1D062D01D9033B00E000234FF0FF35C7
:1016280005FA04F421EA0401994005FA03F322EAD1
:1016380003031943002809DB0901C9B200F160401E
:1016480000F5614080F8001330BC704700F00F00CF
:101658000901C9B2024B1954F6E700BF00ED00E0DA
:1016680014ED00E000F01F02400901239340024AF4
:1016780042F82030704700BF00E100E00138B0F1C7
:10168800807F0AD2064B5860064AF02182F8231060
:101698000020986007221A6070470120704700BF39
:1016A80010E000E000ED00E01549D1F8883043F47F
:1016B8007003C1F88830134B1A6842F001021A60AF
:1016C8005868114A02405A601A6822F0847222F45B
:1016D80080321A601A6822F480221A605A6822F44A
:1016E800FE025A60DA6A22F00F02DA62186B074AC1
:1016F80002401A6300229A604FF000638B607047C3
:1017080000ED00E0001002400CC07FF8CCFC00FFA8
:10171800DFF834D0002103E00C4B5B584350043110
:101728000B480C4B42189A42F6D30B4A02E00023AE
:1017380042F8043B094B9A42F9D3FFF7B5FF00F092
:1017480011F8FEF733FEFEE70030002014180008F9
:10175800000000200C0000200C00002008010020E0
:10176800FEE7000070B50D4D0D4C641BA41000265B
:10177800A64209D10B4D0C4C00F020F8641BA410B4
:101788000026A64205D170BD55F8043B984701369E
:10179800EEE755F8043B98470136F2E70C180008C5
:1017A8000C1800080C18000810180008024403461A
:1017B800934200D1704703F8011BF9E7F8B500BF61
:1017C800F8BC08BC9E467047F8B500BFF8BC08BC1A
:0417D8009E46704772
:1017DC0002030405060708090A0B0C0D0E0F101066
:1017EC000102030405060708090A0B0C0D0E0F1065
:1017FC0000000000000000000102030406070809B5
:04180C00AD01000822
:041810008901000842
:0C181400010000001000000000127A002B
:0400000508001719BF
:00000001FF
